:100000000C9463000C948B000C948B000C948B006C
:100010000C948B000C948B000C948B000C948B0034
:100020000C948B000C948B000C948B000C9481042A
:100030000C948B000C948B000C948B000C948B0014
:100040000C94BB020C948B000C94FA000C948B0063
:100050000C948B000C948B000C948B000C948B00F4
:100060000C948B000C948B000000000024002700EF
:100070002A0000000000250028002B0000000000DE
:1000800023002600290004040404040404040202DA
:100090000202020203030303030301020408102007
:1000A0004080010204081020010204081020000012
:1000B0000007000201000003040600000000000029
:1000C0000000C000430211241FBECFEFD8E0DEBF06
:1000D000CDBF11E0A0E0B1E0EAE2F0E102C005909E
:1000E0000D92AA30B107D9F711E0AAE0B1E001C042
:1000F0001D92AA3DB107E1F710E0C6ECD0E004C0C4
:100100002297FE010E940F08C23CD107C9F70E9446
:100110007D020C9413080C9400000F931F939B0115
:100120008C010E5F1F4F442737FD4095542FCA01A5
:10013000B9010E948F0620E030E048EC52E40E94B2
:10014000F40520E030E044E353E40E941B070E94E2
:100150005C069B01AC01C801B9010E9493031F9189
:100160000F910895FC016081718102960E947A04CA
:100170000895FC0161937193CF010E943D0308959E
:100180000F931F930AE011E0C8016AE070E00E943B
:10019000B900C80105966BE070E00E94B9001F919C
:1001A0000F9108950F931F930AE011E0C8016EE1CB
:1001B00070E00E948D00C80105966EE170E00E941B
:1001C0008D001F910F9108950F931F9388E991E07F
:1001D00040E052EC61E070E00E9437010AE011E07B
:1001E000C8010E94B200C80105960E94B2001F918A
:1001F0000F9108951F920F920FB60F9211242F9313
:100200003F934F935F936F937F938F939F93AF939E
:10021000BF93EF93FF934091C600E0919401F0915A
:100220009501CF01019660E870E00E94A9079C014A
:1002300080919601909197012817390739F0EC5E6B
:10024000FE4F40833093950120939401FF91EF91ED
:10025000BF91AF919F918F917F916F915F914F91DE
:100260003F912F910F900FBE0F901F9018955F92A6
:100270006F927F928F929F92AF92BF92CF92DF92B6
:10028000EF92FF920F931F93CF93DF93EC013A010C
:100290004B01413482E458078FE0680780E078071B
:1002A0000CF07FC060E874E88EE190E0A401930157
:1002B0000E94DE072150304040405040CA01B90141
:1002C00022E030E040E050E00E94DE0759016A0180
:1002D000A6019501209530954095509594E0220F08
:1002E000331F441F551F9A95D1F760E074E284EFE5
:1002F00090E00E94DE07CA01B9012FEF30E040E034
:1003000050E00E947E07A40193010E94DE07C9010C
:1003100081509F4F181619061CF4522E5A9403C090
:1003200055245394521A60E079E08DE390E0A401E3
:1003300093010E94DE072150304040405040CA01E6
:10034000B90122E030E040E050E00E94DE07209555
:1003500030954095509583E0220F331F441F551F61
:100360008A95D1F760E074E284EF90E00E94DE07A6
:10037000CA01B9012FEF30E040E050E00E947E0753
:10038000A40193010E94DE07C90181509F4F1816F6
:1003900019061CF4822F815002C081E0821B851552
:1003A00000F5E885F98581E090E00A8802C0880FB1
:1003B000991F0A94E2F7808360E079E08DE390E092
:1003C000A40193010E94DE0721503040404050407C
:1003D000CA01B90122E030E040E050E00E94DE07AF
:1003E00004C0E885F98510829501EC81FD81308398
:1003F000EE81FF812083EA85FB85208141E050E08A
:10040000CA010E8402C0880F991F0A94E2F7282BB4
:100410002083EA85FB852081CA010F8402C0880FF2
:10042000991F0A94E2F7282B2083EA85FB858081B7
:10043000088802C0440F551F0A94E2F7842B80837A
:10044000DF91CF911F910F91FF90EF90DF90CF90B0
:10045000BF90AF909F908F907F906F905F90089526
:10046000FC01A085B18521898C9190E0022E02C00B
:10047000959587950A94E2F780FFF6CF0484F58579
:10048000E02D6083089584E091E09093990180933A
:10049000980184E191E090939B0180939A0185EC0F
:1004A00090E090939D0180939C0184EC90E0909368
:1004B0009F0180939E0180EC90E09093A101809336
:1004C000A00181EC90E09093A3018093A20186ECBF
:1004D00090E09093A5018093A40184E08093A6010D
:1004E00083E08093A70187E08093A80185E0809353
:1004F000A90181E08093AA0108950E9403030E944C
:10050000E4000E94D200FDCF0F931F93CF93DF939F
:100510008C01EB0109C02196D801ED91FC9101906D
:10052000F081E02DC801099568816623A1F7DF916C
:10053000CF911F910F910895EF92FF920F931F9308
:10054000CF93DF938C017B01EA010CC0D7016D9141
:100550007D01D801ED91FC910190F081E02DC80161
:1005600009952197209791F7DF91CF911F910F91D6
:10057000FF90EF9008951F920F920FB60F921124E3
:100580002F933F938F939F93AF93BF938091AF012E
:100590009091B001A091B101B091B2013091B3013D
:1005A0000196A11DB11D232F2D5F2D3720F02D5752
:1005B0000196A11DB11D2093B3018093AF019093CB
:1005C000B001A093B101B093B2018091AB019091C1
:1005D000AC01A091AD01B091AE010196A11DB11D7C
:1005E0008093AB019093AC01A093AD01B093AE01A9
:1005F000BF91AF919F918F913F912F910F900FBE1F
:100600000F901F901895789484B5826084BD84B54E
:10061000816084BD85B5826085BD85B5816085BDFD
:10062000EEE6F0E0808181608083E1E8F0E08081A7
:1006300082608083808181608083E0E8F0E0808157
:1006400081608083E1EBF0E0808184608083E0EB77
:10065000F0E0808181608083EAE7F0E0808184605F
:1006600080838081826080838081816080838081BB
:10067000806880831092C1000895FC018091B401CC
:100680008C3090F480838F5F8093B401815090E030
:10069000FC01EE0FFF1FE80FF91FEB54FE4F88EB34
:1006A0009BE09283818308958FEF80830895FC01FE
:1006B00020812C30B8F58181992787FD909548E8F5
:1006C00050E0481B590B440F551F440F551F64172A
:1006D000750784F08281992787FD909548E552E05F
:1006E000481B590B440F551F440F551F64177507BE
:1006F0000CF4AB0142505040CA01AA2797FDA095C7
:10070000BA2F880F991FAA1FBB1F4FB7F89430E06C
:10071000F901EE0FFF1FE20FF31FEB54FE4F928320
:1007200081834FBF0895AF92BF92CF92DF92EF9235
:10073000FF920F931F93CF93DF93EC019B0182E015
:10074000603278070CF048C077FF03C020E030E04B
:1007500005C0653B710514F024EB30E000D000D0FB
:10076000B901882777FD8095982F2981332727FDA8
:100770003095B8E8AB2EB12CA21AB30AAA0CBB1C58
:10078000AA0CBB1CCC24B7FCC094DC2CEA81FF274C
:10079000E7FDF09528E532E02E1B3F0B220F331FBB
:1007A000220F331F442737FD4095542FEDB7FEB776
:1007B000218332834383548320E030E040E050E0E3
:1007C000E4EBEE2EF12C012D112D0E94AB059B01C7
:1007D0000F900F900F900F90CE01B9010E94570318
:1007E000DF91CF911F910F91FF90EF90DF90CF900D
:1007F000BF90AF900895CF92DF92EF92FF921F9338
:10080000CF93DF93EC01162F7A01690188818C3038
:1008100008F064C0862F61E00E943E05888190E068
:10082000FC01EE0FFF1FE80FF91FEB54FE4F1F7383
:100830008081807C812B808380E292E08E199F09E9
:1008400064E070E00E94A907698380E699E08C1952
:100850009D0964E070E00E94A9076A83A8818A2F3D
:100860006CE00E949D07682F70E0AB01440F551F9C
:10087000460F571F440F551F440F551F20E030E00F
:10088000C901840F951FFC01EE0FFF1FE80FF91F30
:10089000EB54FE4F808186FD15C02F5F3F4F2C30FB
:1008A000310571F724C01092800082E080938100AE
:1008B0001092850010928400B19A80916F0082603E
:1008C00080936F008A2F90E0FC01EE0FFF1FE80F6E
:1008D000F91FEB54FE4F8081806480838881DF9113
:1008E000CF911F91FF90EF90DF90CF900895672BED
:1008F000D1F2E8CF40E252E020E639E00E94FB036B
:1009000008951F920F920FB60F9211242F933F93C9
:100910004F935F936F937F938F939F93AF93BF9307
:10092000EF93FF938091D90187FF05C01092850056
:10093000109284002BC02091D901332727FD3095D8
:100940008091B40190E02817390704F58091D9010E
:10095000992787FD9095FC01EE0FFF1FE80FF91F07
:10096000EB54FE4F808186FF11C08091D9019927F9
:1009700087FD9095FC01EE0FFF1FE80FF91FEB5468
:10098000FE4F80818F7360E00E945E058091D901E7
:100990008F5F8093D9012091D901332727FD3095AE
:1009A0008091B40190E0281739070CF04EC0809177
:1009B000D9018C300CF049C0209184003091850021
:1009C0008091D901992787FD9095FC01EE0FFF1FBB
:1009D000E80FF91FEB54FE4F81819281280F391FD8
:1009E00030938900209388008091D901992787FD51
:1009F0009095FC01EE0FFF1FE80FF91FEB54FE4F1F
:100A0000808186FF2AC08091D901992787FD909522
:100A1000FC01EE0FFF1FE80FF91FEB54FE4F808122
:100A20008F7361E00E945E0518C080E49CE905C0F8
:100A30008091840090918500049690938900809322
:100A400088008FEF8093D90108C080918400909135
:100A5000850084549C4948F3EBCFFF91EF91BF91FF
:100A6000AF919F918F917F916F915F914F913F9146
:100A70002F910F900FBE0F901F901895282F30E0E8
:100A8000C90186569F4FFC0194912A573F4FF901A7
:100A90008491882391F0E82FF0E0EE0FFF1FE859D2
:100AA000FF4FA591B491662329F48C9190958923E9
:100AB0008C9308958C91892B8C930895482F50E046
:100AC000CA0182559F4FFC012491CA0186569F4F4F
:100AD000FC0194914A575F4FFA0134913323D1F1CD
:100AE000222331F1233021F4809180008F7705C0DB
:100AF000243031F4809180008F7D8093800018C075
:100B0000213019F484B58F7704C0223021F484B5E4
:100B10008F7D84BD0DC0263021F48091B0008F7789
:100B200005C0273029F48091B0008F7D8093B000FC
:100B3000E32FF0E0EE0FFF1FEE58FF4FA591B491A9
:100B4000662329F48C91909589238C9308958C9138
:100B5000892B8C9308952F923F924F925F926F92C0
:100B60007F928F929F92AF92BF92CF92DF92EF923D
:100B7000FF920F931F93DF93CF93CDB7DEB73B0167
:100B80004C0119012A016D897E898F89988D6A1916
:100B90007B098C099D09621A730A840A950AA401CB
:100BA00093010E947E07E218F30804091509A801C1
:100BB00097010E94DE072A0D3B1D4C1D5D1DB901EA
:100BC000CA01CF91DF911F910F91FF90EF90DF90BD
:100BD000CF90BF90AF909F908F907F906F905F90DD
:100BE0004F903F902F9008950CD0EBC0E3D040F091
:100BF000DAD030F021F45F3F19F0CCC0511115C1AB
:100C0000CFC0F0D098F39923C9F35523B1F3951BC6
:100C1000550BBB27AA2762177307840738F09F5F1D
:100C20005F4F220F331F441FAA1FA9F333D00E2E8C
:100C30003AF0E0E830D091505040E695001CCAF7F9
:100C400029D0FE2F27D0660F771F881FBB1F2617BE
:100C500037074807AB07B0E809F0BB0B802DBF0191
:100C6000FF2793585F4F2AF09E3F510568F092C0CE
:100C7000DCC05F3FECF3983EDCF386957795679593
:100C8000B795F7959F5FC9F7880F911D9695879542
:100C900097F90895E1E0660F771F881FBB1F621761
:100CA00073078407BA0720F0621B730B840BBA0B1F
:100CB000EE1F88F7E095089504D06894B111B5C08F
:100CC000089598D088F09F5790F0B92F9927B75181
:100CD000A0F0D1F0660F771F881F991F1AF0BA9500
:100CE000C9F712C0B13081F09FD0B1E008959CC027
:100CF000672F782F8827B85F39F0B93FCCF38695F6
:100D000077956795B395D9F73EF490958095709552
:100D100061957F4F8F4F9F4F0895E89409C097FBCF
:100D20003EF490958095709561957F4F8F4F9F4FC2
:100D30009923A9F0F92F96E9BB279395F695879506
:100D400077956795B795F111F8CFFAF4BB0F11F4C9
:100D500060FF1BC06F5F7F4F8F4F9F4F16C0882370
:100D600011F096E911C0772321F09EE8872F762FA6
:100D700005C0662371F096E8862F70E060E02AF0E7
:100D80009A95660F771F881FDAF7880F96958795D3
:100D900097F9089597F99F6780E870E060E00895FB
:100DA0009FEF80EC089500240A9416161706180683
:100DB0000906089500240A9412161306140605065F
:100DC0000895092E0394000C11F4882352F0BB0FF0
:100DD00040F4BF2B11F460FF04C06F5F7F4F8F4F53
:100DE0009F4F089557FD9058440F551F59F05F3F8E
:100DF00071F04795880F97FB991F61F09F3F79F03D
:100E000087950895121613061406551FF2CF4695BE
:100E1000F1DF08C0161617061806991FF1CF869540
:100E20007105610508940895E894BB276627772724
:100E3000CB0197F908950BD0C4CFB5DF28F0BADF06
:100E400018F0952309F0A6CFABCF1124EECFCADF5F
:100E5000A0F3959FD1F3950F50E0551F629FF001CD
:100E6000729FBB27F00DB11D639FAA27F00DB11D26
:100E7000AA1F649F6627B00DA11D661F829F2227AF
:100E8000B00DA11D621F739FB00DA11D621F839F36
:100E9000A00D611D221F749F3327A00D611D231F0C
:100EA000849F600D211D822F762F6A2F11249F575A
:100EB00050408AF0E1F088234AF0EE0FFF1FBB1F7D
:100EC000661F771F881F91505040A9F79E3F51051C
:100ED00070F060CFAACF5F3FECF3983EDCF38695CD
:100EE00077956795B795F795E7959F5FC1F7FE2BC7
:100EF000880F911D9695879597F90895629FD00167
:100F0000739FF001829FE00DF11D649FE00DF11DC4
:100F1000929FF00D839FF00D749FF00D659FF00D73
:100F20009927729FB00DE11DF91F639FB00DE11D60
:100F3000F91FBD01CF0111240895991B79E004C068
:100F4000991F961708F0961B881F7A95C9F7809508
:100F5000089597FB092E07260AD077FD04D049D0C3
:100F600006D000201AF4709561957F4F0895F6F72A
:100F7000909581959F4F0895A1E21A2EAA1BBB1B45
:100F8000FD010DC0AA1FBB1FEE1FFF1FA217B30755
:100F9000E407F50720F0A21BB30BE40BF50B661F6B
:100FA000771F881F991F1A9469F76095709580952F
:100FB00090959B01AC01BD01CF01089597FB092ECF
:100FC00005260ED057FD04D0D7DF0AD0001C38F418
:100FD00050954095309521953F4F4F4F5F4F089565
:100FE000F6F790958095709561957F4F8F4F9F4F45
:100FF0000895AA1BBB1B51E107C0AA1FBB1FA61760
:10100000B70710F0A61BB70B881F991F5A95A9F7B1
:1010100080959095BC01CD010895EE0FFF1F0590BE
:0A102000F491E02D0994F894FFCF3D
:0A102A0000000000300284029C0266
:00000001FF
